{
  "contractName": "DAIBridge",
  "abi": [
    {
      "inputs": [
        {
          "name": "_token",
          "type": "address"
        }
      ],
      "payable": false,
      "stateMutability": "nonpayable",
      "type": "constructor"
    },
    {
      "anonymous": false,
      "inputs": [],
      "name": "RelayMessage",
      "type": "event"
    },
    {
      "constant": false,
      "inputs": [],
      "name": "setTransfer",
      "outputs": [],
      "payable": false,
      "stateMutability": "nonpayable",
      "type": "function"
    }
  ],
  "bytecode": "0x608060405234801561001057600080fd5b5060405160208061011f8339810180604052602081101561003057600080fd5b8101908080519060200190929190505050806000806101000a81548173ffffffffffffffffffffffffffffffffffffffff021916908373ffffffffffffffffffffffffffffffffffffffff16021790555050608f806100906000396000f3fe6080604052348015600f57600080fd5b506004361060285760003560e01c80632683090714602d575b600080fd5b60336035565b005b7f5e86ac7f08012a345da7fa4790b2862813bd9a56693076b5f6f63148076ad92560405160405180910390a156fea165627a7a72305820f899bf9f4c085701e6b6936e88cbf0094f4c0160e50203601cc2483e7b7cf13a0029",
  "source": "pragma solidity ^0.5.8;\n\nimport 'openzeppelin-solidity/contracts/token/ERC20/SafeERC20.sol';\n\ncontract DAIBridge {\n    IERC20 private token;\n\n    event RelayMessage();\n\n    constructor (IERC20 _token) public {\n        token = _token;\n    }\n\n    function setTransfer() public {\n        // TODO: validate\n        // token.transferFrom(msg.sender, address(this), amount);\n        // TODO: event\n        emit RelayMessage();\n    }\n}",
  "sourcePath": "/Users/skoike/Dev/21_substrate_workshop_try2/substrate-ethereum/ethereum-contract/contracts/main/DAIBridge.sol",
  "compiler": {
    "name": "solc",
    "version": "0.5.8+commit.23d335f2.Emscripten.clang"
  },
  "schemaVersion": "3.0.16",
  "updatedAt": "2019-11-01T08:59:38.685Z",
  "devdoc": {
    "methods": {}
  },
  "userdoc": {
    "methods": {}
  }
}